:020000040000FA
:100000000C9449010C947A010C947A010C947A01B5
:100010000C947A010C947A010C947A010C947A0174
:100020000C947A010C947A010C947A010C947A0164
:100030000C947A010C947A010C947A010C947A0154
:100040000C947A010C9477090C947A010C947A013F
:100050000C947A010C947A010C947A010C94430864
:100060000C947A010C94B7080C948D080C947A01C6
:100070000C947A010C947A010C947A010C947A0114
:100080000C9449090C947A010C947A010C947A012D
:100090000C947A010C947A010C947A010C947A01F4
:1000A0000C947A010C947A010C941B090C947A013B
:1000B0000C947A010C947A010C947A010C94ED085A
:1000C0000C947A010C947A010C947A010C947A01C4
:1000D0000C947A010C947A010C947A010C947A01B4
:1000E0000C947A010C94E6010C94FB010C941D0213
:1000F0000C9454020C9421020C94E2010C94EE0135
:100100000C9427020C9401020C944A0A0C94850268
:100110000C94F1010C9477020C9417020C940902D0
:100120000C94C50E0C940A030C9463020C94050203
:100130000C940F020C94CB010C94F7010C94EA017F
:100140000C94D0010C94BD020C9413024E414E4904
:100150004E495459494E46CDCCCC3D0AD7233C1785
:10016000B7D13877CC2B329595E6241FB14F0A00D2
:100170000020410000C84200401C4620BCBE4CCAC2
:100180001B0E5AAEC59D7400000A0B02090C0D0E21
:100190000807030401000000000000000000000048
:1001A000000000000000000000000000000000004F
:1001B000000000121110000000000000000000000C
:1001C000000000000000000000000000000000220D
:1001D00000250028002B002E003100340002010011
:1001E00000050108010B0100002100240027002A5E
:1001F000002D003000330001010000040107010A56
:100200000105050505070508080808020202020A9B
:100210000A080804040404010101010101010103A9
:1002200003030303030303040707070C0C0C0C0C64
:100230000C0C0C0202020206060606060606060B57
:100240000B0B0B0B0B0B0B010210202008081020CE
:100250004010204080020102010804020101020452
:100260000810204080804020100804020180040211
:100270000180402010080402010804020101020468
:1002800008102040800102040810204080004A0A23
:10029000C50E11241FBECFEFD1E2DEBFCDBF00E0FF
:1002A0000CBF15E0A0E0B2E0ECEFFAE200E00BBF1B
:1002B00002C007900D92A434B107D9F726E0A4E458
:1002C000B5E001C01D92AE39B207E1F711E0C8E414
:1002D000D1E000E006C021970109802FFE010E94B5
:1002E0003613C734D10780E00807A9F70E94C60A71
:1002F0000C946C150C94000090E0FC01E95BFD4F40
:1003000024918F5F9D4FFC018491882399F090E0A8
:10031000880F991FFC01E951FE4FA591B491FC0192
:10032000E353FE4F859194918FB7F894EC91E22BB3
:10033000EC938FBF0895282F30E0F901E957FE4F65
:100340009491F901E95BFD4F44912F5F3D4FF90115
:100350002491222309F435C0992311F1915092314F
:10036000F8F4E92FF0E08827E754FE4F8F4F0C9404
:100370003613EA01EE01CB01E201E601D001F10101
:10038000F701FB010102050209020F021302D0016D
:1003900017021D022102809180008F7780938000D8
:1003A000E22FF0E0EE0FFF1FE353FE4FA591B49153
:1003B0008FB7F894EC91611148C040954E234C934F
:1003C0008FBF0895809180008F7DE8CF809180005D
:1003D000877FE4CF84B58F7784BDE2CF84B58F7DEE
:1003E000FBCF8091B0008F778093B000D9CF809100
:1003F000B0008F7DF9CF809190008F77809390002F
:10040000CFCF809190008F7DF9CF80919000877F32
:10041000F5CF8091A0008F778093A000C1CF80910D
:10042000A0008F7DF9CF8091A000877FF5CF8091CC
:1004300020018F7780932001B3CF809120018F7DA1
:10044000F9CF80912001877FF5CF4E2BB8CFAF92A7
:10045000BF92CF92DF92EF92FF920F931F93CF93B1
:10046000DF936C017B018B01040F151FEB015E0113
:10047000AE18BF08C017D10759F06991D601ED91A8
:10048000FC910190F081E02DC6011995892B79F737
:10049000C501DF91CF911F910F91FF90EF90DF90F9
:1004A000CF90BF90AF900895FC01538D448D252FC0
:1004B00030E0842F90E0821B930B541710F0CF96FE
:1004C000089501970895FC01918D828D981761F030
:1004D000A28DAE0FBF2FB11D5D968C91928D9F5F47
:1004E0009F73928F90E008958FEF9FEF0895FC0126
:1004F000918D828D981731F0828DE80FF11D858DD9
:1005000090E008958FEF9FEF0895FC01918D228D6B
:10051000892F90E0805C9F4F821B91098F739927F0
:1005200008958EE595E00E94850221E0892B09F46B
:1005300020E0822F0895FC01A48DA80FB92FB11DD2
:10054000A35ABF4F2C91848D90E001968F73992709
:10055000848FA689B7892C93A089B1898C918370E7
:1005600080648C93938D848D981306C00288F389E0
:10057000E02D80818F7D80830895EF92FF920F930D
:100580001F93CF93DF93EC0181E0888F9B8D8C8D3F
:1005900098131AC0E889F989808185FF15C09FB733
:1005A000F894EE89FF896083E889F98980818370F6
:1005B000806480839FBF81E090E0DF91CF911F91A5
:1005C0000F91FF90EF900895F62E0B8D10E00F5FC6
:1005D0001F4F0F731127E02E8C8D8E110CC00FB69C
:1005E00007FCFACFE889F989808185FFF5CFCE0134
:1005F0000E949B02F1CFEB8DEC0FFD2FF11DE35A12
:10060000FF4FF0829FB7F8940B8FEA89FB898081B6
:100610008062CFCFCF93DF93EC01888D8823B9F030
:10062000AA89BB89E889F9898C9185FD03C08081FD
:1006300086FD0DC00FB607FCF7CF8C9185FFF2CF7A
:10064000808185FFEDCFCE010E949B02E9CFDF9133
:10065000CF91089580E090E0892B29F00E949102CB
:1006600081110E94000080E090E0892B49F080E039
:1006700090E0892B29F00E94000081110E94000067
:1006800080E090E0892B49F080E090E0892B29F010
:100690000E94000081110E94000080E090E0892B00
:1006A00049F080E090E0892B29F00E940000811140
:1006B0000C9400000895CF92DF92EF92FF92CF93B7
:1006C000DF93EC01603282E07807CCF5653B710581
:1006D00014F064EB70E0898128E830E0281B3109D0
:1006E00087FD3395220F331F220F331F6901330F0C
:1006F000EE08FF088A8128E532E0281B310987FDD2
:100700003395220F331F220F331F032E000C440B8F
:10071000550B2C193D094E095F09DB0177FF02C01B
:10072000B0E0A0E00E94D91124EB30E040E050E0BE
:100730000E94AF11C20ED31EE41EF51EB601E88161
:10074000E03370F5298188E890E0821B910927FD4C
:100750009395880F991F880F991F681779077CF068
:100760002A8188E592E0821B910927FD9395880FE5
:10077000991F880F991F681779070CF4CB0102970E
:10078000880F991F4FB7F8942E2F30E0F901EE0F24
:10079000FF1FE20FF31FE550FA4F928381834FBF93
:1007A000DF91CF91FF90EF90DF90CF9008951F934E
:1007B000CF93DF93EC01162F8881803308F04DC072
:1007C000862F0E947C018881282F30E0F901EE0FEE
:1007D000FF1FE20FF31FE550FA4F1F736081607C2B
:1007E000612B608319821A822CE0622F0E942A13E7
:1007F000829FB001112430E020E0AB01420F531F73
:10080000FA01EE0FFF1FE40FF51FE550FA4F90813C
:1008100096FD16C02F5F3F4F2C30310571F78130A8
:1008200009F51092800082E080938100109285008B
:1008300010928400B19A80916F00826080936F0063
:10084000E8818E2F90E0FC01EE0FFF1FE80FF91FEB
:10085000E550FA4F8081806480838881DF91CF9159
:100860001F910895823061F410929000809391005E
:10087000109295001092940088BB80937100E0CF95
:10088000833069F41092A00082E08093A10010925E
:10089000A5001092A40089BB80937200D1CF811172
:1008A000CFCF1092200182E0809321011092250188
:1008B000109224018ABB80937300C2CFAF92BF9283
:1008C000CF92DF92EF92FF920F931F93CF93DF931C
:1008D0006B017A01EC01CC5BDA4F28813CE0389F58
:1008E0008001399F100D1124A0908B06B12C27FF99
:1008F0001FC0FB011182108288818F5F88838881ED
:100900009801280F311D87FD3A95F6012A153B0500
:100910001CF488818C30C4F18081918104968034EC
:100920009C4908F473C0F60180819181049670C0DF
:1009300088819801280F311D87FD3A952A153B05BE
:10094000DCF68881A801480F511D87FD5A95FA01F0
:10095000EE0FFF1FE40FF51FE550FA4F808186FF71
:10096000CBCF8881F801E80FF11D87FDFA95CF0103
:10097000EE0FFF1FE80FF91FE550FA4F808160E08E
:100980008F730E949B01B8CF808191812881A8013B
:10099000420F511D27FD5A959A01FA01EE0FFF1FD4
:1009A000E20FF31FE550FA4F21813281820F931F2E
:1009B000F7019183808388819801280F311D87FD7D
:1009C0003A95F901EE0FFF1FE20FF31FE550FA4FC2
:1009D000808186FF22C08881080F111D87FD1A952E
:1009E000F801EE0FFF1FE00FF11FE550FA4F808175
:1009F00061E08F73DF91CF911F910F91FF90EF9086
:100A0000DF90CF90BF90AF900C949B0180E49CE965
:100A1000F701918380838FEF8883DF91CF911F91BE
:100A20000F91FF90EF90DF90CF90BF90AF9008951F
:100A30008F929F92AF92BF92CF92DF92EF92FF92EE
:100A40006091500585E00E949B0160914F0586E012
:100A50000E949B0160914E0587E00E949B0160917E
:100A60004D058BE00E949B0160914C058CE00E943B
:100A70009B01A0914805B09149052AE530E00E940C
:100A80003E1324E6C22ED12CE12CF12CA7019601B5
:100A90000E94AF114901A0914A05B0914B052AE58A
:100AA00030E00E943E13A70196010E94AF11B901E8
:100AB00085E996E00E945B03B40182E996E0FF902D
:100AC000EF90DF90CF90BF90AF909F908F900C945D
:100AD0005B03FC0101900020E9F73197AF01481B4F
:100AE000590BBC018EE595E00C9427028F929F92E2
:100AF000AF92BF920F931F93CF93DF93CDB7DEB723
:100B0000A1970FB6F894DEBF0FBECDBF19A2423039
:100B100008F44AE08E010F5D1F4F842E912CB12CFA
:100B2000A12CA50194010E94E111E62FB901CA018F
:100B3000EA30F4F4E05DD801EE938D01232B242BF1
:100B4000252B79F790E080E0109719F0CD010E94F5
:100B50006905A1960FB6F894DEBF0FBECDBFDF9139
:100B6000CF911F910F91BF90AF909F908F9008955C
:100B7000E95CE1CFCF92DF92EF92FF92CF93DF93C8
:100B80006C01990FEE08FF08F7FE19C06DE28EE5C3
:100B900095E00E94BD02EC0166277727CB016C1916
:100BA0007D098E099F094AE00E9476058C0F9D1FE2
:100BB000DF91CF91FF90EF90DF90CF9008954AE0C2
:100BC000C701B601DF91CF91FF90EF90DF90CF90FA
:100BD0000C9476050C9469054F925F926F927F9208
:100BE0008F929F92AF92BF92CF92DF92EF92FF923D
:100BF0000F931F93CF936B017C01742EAC019B016B
:100C00000E942513882399F080E292E0CF911F91F2
:100C10000F91FF90EF90DF90CF90BF90AF909F909B
:100C20008F907F906F905F904F900C946905460174
:100C30005701E894B7F82FEF3FEF4FE75FE7C501A3
:100C4000B4010E94251381110DC02FEF3FEF4FE734
:100C50005FE7C501B4010E94881018161CF484E2F5
:100C600092E0D4CF2FEF3FEF4FE75FE4C701B6012B
:100C70000E94201318161CF488E292E0C7CF2FEFD1
:100C80003FEF4FE75FECC701B6010E94881087FD78
:100C9000F3CF20E030E0A901C701B6010E9488101F
:100CA00010E000E087FF0AC06DE28EE595E00E944B
:100CB000BD028C01F7FAF094F7F8F094C0E060E020
:100CC00070E080E09FE37C1641F020E030E040E2FD
:100CD00051E40E947F12CF5FF6CFA70196010E94D8
:100CE00013122B013C010E94F1124B015C014AE0FE
:100CF0000E9476057C01E00EF11ECC23C1F1C501F6
:100D0000B4010E948D109B01AC01C301B2010E948D
:100D100012124B015C016EE28EE595E00E94BD026D
:100D2000E80EF91EC15018F120E030E040E251E435
:100D3000C501B4010E94EE102B013C010E94F1128A
:100D40004B01B12CA12C4AE0C501B4010E947605EB
:100D5000E80EF91EC501B4010E948D109B01AC0183
:100D6000C301B2010E9412124B015C01DBCFC7012B
:100D7000CF911F910F91FF90EF90DF90CF90BF9098
:100D8000AF909F908F907F906F905F904F9008955D
:100D9000CF93DF93FC0144815581608171818EE5A1
:100DA00095E00E942702EC018CE292E00E94690526
:100DB0008C0F9D1FDF91CF910895CF93DF930E94F9
:100DC0006905EC018CE292E00E9469058C0F9D1F81
:100DD000DF91CF91089586E392E00E94EA058EE3C9
:100DE00092E00E94EA058091500581117AC082E369
:100DF00092E00E94EA058CE492E00E94EA0580916C
:100E00004F05811171C082E392E00E94EA0586E5F8
:100E100092E00E94EA0580914E05811168C082E34C
:100E200092E00E94EA0580E692E00E94EA0583E6ED
:100E300092E00E94EA0580914A0590914B050E943C
:100E4000BA0589E692E00E94EA058CE692E00E94EB
:100E5000EA0580914805909149050E94BA0589E606
:100E600092E00E94EA0584E792E00E94EA05809100
:100E70004D0581113FC082E392E00E94EA058DE7B3
:100E800092E00E94EA0580914C05811136C082E310
:100E900092E00E94EA0580E692E00E94EA0581E87D
:100EA00092E00E94EA05609104027091050280912F
:100EB00006029091070241E00E94EC0588E892E06A
:100EC0000E94EA0560910002709101028091020285
:100ED0009091030241E00E94EC058DE892E00C94B1
:100EE000DD068FE292E085CF8FE292E08ECF8FE237
:100EF00092E097CF8FE292E0C0CF8FE292E0C9CF2D
:100F000080E992E00E94DD0683EB92E00E94DD061C
:100F100084ED92E00E94DD0689EF92E00E94DD06FA
:100F20008EE193E00E94DD0685E493E00E94DD06F9
:100F300089E793E00E94DD068EE893E00E94DD06DB
:100F400081E494E00E94DD0683EA93E00E94DD06DE
:100F500089EC93E00E94DD068DEE93E00E94DD06B1
:100F600084EF93E00E94DD0689EF93E00C94DD06A8
:100F7000FC0180819181009711F00C94E113089598
:100F8000FC0124813581232B39F421E0FB01808190
:100F9000882349F020E007C0808191810E945C1580
:100FA00021E0892BB9F7822F08950F931F93CF93D8
:100FB000DF93EC0188819981009759F02A813B8168
:100FC0002617370730F081E0DF91CF911F910F9105
:100FD00008958B016F5F7F4F0E946A14009759F04C
:100FE000998388831B830A832C813D81232B59F7A6
:100FF000FC011082E8CF80E0E7CFEF92FF920F93E1
:101000001F93CF93DF93EC017B018A01BA010E9409
:10101000D50728813981811114C02115310519F0B6
:10102000C9010E94E113198218821D821C821B8251
:101030001A82CE01DF91CF911F910F91FF90EF9017
:1010400008951D830C83B701C9010E946515F1CF76
:10105000FB0101900020E9F73197AF01461B570BC8
:101060000C94FD07FC0111821082138212821582FA
:101070001482FB0101900020E9F73197AF01461B74
:10108000570B0C94FD071F920F920FB60F9211246D
:101090002F933F938F939F93AF93BF9380915A0564
:1010A00090915B05A0915C05B0915D05309159056B
:1010B00023E0230F2D3758F50196A11DB11D209374
:1010C000590580935A0590935B05A0935C05B093F6
:1010D0005D058091550590915605A0915705B091F9
:1010E00058050196A11DB11D809355059093560595
:1010F000A0935705B0935805BF91AF919F918F91E1
:101100003F912F910F900FBE0F901F90189526E8DA
:10111000230F0296A11DB11DD2CF1F920F920FB6C1
:101120000F9211240BB60F922F933F934F935F931F
:101130006F937F938F939F93AF93BF93EF93FF939F
:101140008EE595E00E949B02FF91EF91BF91AF91D8
:101150009F918F917F916F915F914F913F912F91CF
:101160000F900BBE0F900FBE0F901F9018951F92FF
:101170000F920FB60F9211240BB60F922F938F93ED
:101180009F93EF93FF93E0916E05F0916F0580813F
:10119000E0917405F091750582FD1DC090818091EC
:1011A00077058F5F8F7320917805821741F0E0916A
:1011B0007705F0E0E25AFA4F958F80937705FF911B
:1011C000EF919F918F912F910F900BBE0F900FBEBB
:1011D0000F901F9018958081F2CF1F920F920FB63B
:1011E0000F9211240BB60F922F933F934F935F935F
:1011F0006F937F938F939F93AF93BF93EF93FF93DF
:1012000048E251E064E271E090E080E00E945E0418
:10121000FF91EF91BF91AF919F918F917F916F91CE
:101220005F914F913F912F910F900BBE0F900FBE8A
:101230000F901F9018951F920F920FB60F921124C6
:101240000BB60F922F933F934F935F936F937F93C0
:101250008F939F93AF93BF93EF93FF9348EA50E030
:1012600064EA70E083E090E00E945E04FF91EF91F9
:10127000BF91AF919F918F917F916F915F914F91AE
:101280003F912F910F900BBE0F900FBE0F901F90AC
:1012900018951F920F920FB60F9211240BB60F9252
:1012A0002F933F934F935F936F937F938F939F936E
:1012B000AF93BF93EF93FF9348E950E064E970E088
:1012C00082E090E00E945E04FF91EF91BF91AF91A8
:1012D0009F918F917F916F915F914F913F912F914E
:1012E0000F900BBE0F900FBE0F901F9018951F927E
:1012F0000F920FB60F9211240BB60F922F933F93BC
:101300004F935F936F937F938F939F93AF93BF930D
:10131000EF93FF9348E850E064E870E081E090E0EC
:101320000E945E04FF91EF91BF91AF919F918F91C9
:101330007F916F915F914F913F912F910F900BBED5
:101340000F900FBE0F901F901895AF92BF92CF9243
:10135000DF92EF92FF920F931F93CF93DF93EC01F5
:101360005B016A0179012417350720F48D2D69018D
:10137000E42EF82E6EE272E0CE010E943208D50112
:1013800014960D911C91C016D106E8F4E016F106F2
:1013900008F48701D501ED91FC911197E00FF11F41
:1013A000F08010826D917C916C0D7D1D6115710531
:1013B000B1F0CE010E942808F50180819181080FCB
:1013C000191FD801FC92CE01DF91CF911F910F918F
:1013D000FF90EF90DF90CF90BF90AF9008958881FD
:1013E0009981009711F00E94E113198218821D82E1
:1013F0001C821B821A82E0CF0F931F93CF93DF933F
:1014000000D000D0CDB7DEB78B01FB012481358140
:1014100050E040E0BC01CE0101960E94A5092D815B
:101420003E81F8018481958128173907D1F489819B
:101430009A8160817181009741F16115710511F503
:10144000232B31F1FC01808190E008C0232B01F1B6
:10145000FB01808190E091958195910911E0892BA4
:1014600009F010E0CE0101960E94B807812F269660
:101470000FB6F894DEBF0FBECDBFDF91CF911F91A5
:101480000F9108950E945C15E9CF61157105F1F681
:1014900011E0E8CF109261051092600588EE93E0AC
:1014A000A0E0B0E08093620590936305A09364058B
:1014B000B093650582E192E090935F0580935E05AD
:1014C00085EC90E090936B0580936A0584EC90E046
:1014D00090936D0580936C0580EC90E090936F0580
:1014E00080936E0581EC90E0909371058093700578
:1014F00082EC90E0909373058093720586EC90E007
:101500009093750580937405109277051092780575
:101510001092790510927A0580918B06803370F5D0
:1015200091E0980F90938B068093950690E0FC01D4
:10153000EE0FFF1FE80FF91FE550FA4F88EB9BE015
:101540009283818380918B068033E0F491E0980F41
:1015500090938B068093920690E0FC01EE0FFF1FA4
:10156000E80FF91FE550FA4F88EB9BE092838183E7
:101570006EE272E08CE896E00C9432088FEF809374
:101580009506E0CF8FEF80939206F2CFCF93DF9353
:10159000CDB7DEB72E970FB6F894DEBF0FBECDBF26
:1015A000789484B5826084BD84B5816084BD85B53E
:1015B000826085BD85B5816085BD80916E0081604A
:1015C00080936E00109281008091810082608093F0
:1015D00081008091810081608093810080918000F2
:1015E0008160809380008091B10084608093B1001D
:1015F0008091B00081608093B00080919100826002
:1016000080939100809191008160809391008091FE
:1016100090008160809390008091A100826080930F
:10162000A1008091A10081608093A1008091A00021
:1016300081608093A00080912101826080932101CC
:10164000809121018160809321018091200181603E
:101650008093200180917A00846080937A00809149
:101660007A00826080937A0080917A008160809312
:101670007A0080917A00806880937A001092C1008D
:1016800085E00E947C0186E00E947C0187E00E9448
:101690007C018BE00E947C018CE00E947C0169E06F
:1016A00070E085E996E00E94D7036AE070E082E985
:1016B00096E00E94D703E0916E05F0916F0582E0FD
:1016C0008083E0916A05F0916B051082E0916C05D2
:1016D000F0916D0580E1808310927605E0917205AE
:1016E000F091730586E08083E0917005F0917105BB
:1016F000808180618083E0917005F0917105808127
:1017000088608083E0917005F09171058081806828
:101710008083E0917005F091710580818F7D8083D9
:101720000E9418058CE194E00E94DD060E9480076B
:101730000E94EB0633243394412C512C80E5682E13
:1017400082E4782E96E6892E982C96ECA92E91E4C8
:10175000B92E8EE595E00E948502181619060CF048
:101760006BC28EE595E00E9463028A3019F08D30DD
:1017700009F02DC2409190065091910641155105F6
:1017800041F318861F821A8619861C861B86609173
:101790008C0670918D066115710521F0CE010796BA
:1017A0000E94FD07CF80D884C114D10431F00B858D
:1017B0001C85760101151105B9F40F8118850115F5
:1017C000110509F448C0F80181918F01882309F4BB
:1017D00042C0082E000C990B0E944B15F80131975E
:1017E0008083F1CFED84FE8497012F5F3F4F3E87CA
:1017F0002D87F7018081082E000C990B0E9467103D
:10180000892B81F7015011090C0D1D1DF8018081F4
:10181000082E000C990B0E946710892B31F00E15D1
:101820001F0518F001501109F1CFA8014F5F5F4F5C
:101830004E195F095C874B87CE14DF0420F4B70193
:10184000C6010E945315EF81F8858B859C85E80FB2
:10185000F91F1082B2CF8B859C85892B51F064EFE4
:1018600073E0CE0107960E94C007882369F00E94AA
:101870008007CE0107960E94B8076EE272E08CE8FE
:1018800096E00E94280865CF6DEE73E0CE010796C2
:101890000E94C007882319F00E94EB06EACF61E49A
:1018A00074E0CE0107960E94C0078823C9F0109209
:1018B000500510924F0510924E0510924D05109252
:1018C0004C0510924B0510924A0510924905109252
:1018D00048050E9418058EE394E00E94DD06DCCFE7
:1018E00069E474E0CE0107960E94C007882369F07E
:1018F000309250050E9418058BEE94E00E94EA0594
:10190000CE0107960E94C806C7CF64EC72E0CE01F4
:1019100007960E94C007882319F010925005EACF5D
:1019200068E574E0CE0107960E94C007882319F08D
:1019300030924F05DFCF67EE72E0CE0107960E942E
:10194000C007882319F010924F05D4CF69E674E0E0
:10195000CE0107960E94C007882319F030924E05E9
:10196000C9CF6CE073E0CE0107960E94C0078823C0
:1019700019F010924E05BECF6AE774E0CE010796CB
:101980000E94C007882319F030924D05B3CF64E858
:1019900073E0CE0107960E94C007882319F01092C9
:1019A0004D05A8CF63E874E0CE0107960E94C007FA
:1019B000882319F030924C059DCF69E973E0CE0180
:1019C00007960E94C007882319F010924C0592CF09
:1019D0006CE874E0CE0107960E94C007882339F0B6
:1019E00004E610E010934B0500934A0583CF66E9A7
:1019F00074E0CE0107960E94C007882329F0109258
:101A00004B0510924A0576CF61EA74E0CE0101964B
:101A10000E943208BE016F5F7F4FCE0107960E9481
:101A2000FC09182FCE0101960E94B807112339F145
:101A30002B853C8545E050E0BE01695F7F4FCE01BC
:101A400001960E94A50989819A810097A1F00E94C0
:101A5000CD0E6536710514F064E670E077FF02C0C4
:101A600070E060E070934B0560934A05CE010196EB
:101A70000E94B8073FCF60E070E0CB01EACF67EA91
:101A800074E0CE0101960E943208BE016F5F7F4F65
:101A9000CE0107960E94FC09182FCE0101960E94E4
:101AA000B807112319F12B853C8547E050E0BE01B2
:101AB000695F7F4FCE0101960E94A50989819A81B5
:101AC000009781F00E94CD0E6536710514F064E632
:101AD00070E077FF02C070E060E0709349056093AA
:101AE0004805C4CF60E070E0CB01EECF6FEA74E050
:101AF000CE0101960E943208BE016F5F7F4FCE017A
:101B000007960E94FC09182FCE0101960E94B80783
:101B10001123F1F02B853C8546E050E0BE01695F62
:101B20007F4FCE0101960E94A50989819A81009775
:101B300059F00E94C90E60930402709305028093CD
:101B400006029093070292CF60E070E0CB01F3CFE2
:101B500066EB74E0CE0101960E943208BE016F5F11
:101B60007F4FCE0107960E94FC09182FCE010196E7
:101B70000E94B8071123F1F02B853C8546E050E028
:101B8000BE01695F7F4FCE0101960E94A509898140
:101B90009A81009759F00E94C90E609300027093D9
:101BA0000102809302029093030260CF60E070E034
:101BB000CB01F3CF8DEB94E00E94EA05CE010796AE
:101BC0000E94C8068FEC94E00E94DD0652CE009180
:101BD00090061091910689831A820F5F1F4FB801FA
:101BE0008CE896E00E94D507882399F020918C0616
:101BF00030918D068091900690919106BE016F5FA5
:101C00007F4F820F931F0E946515109391060093DA
:101C1000900680919006909191068937910508F47D
:101C200098CD6EE272E08CE896E00E9428088FEE74
:101C300094E00E94DD068DCD2FB7F89480915A056F
:101C400090915B05A0915C05B0915D052FBF40911F
:101C500051055091520560915305709154058C01C6
:101C60009D01041B150B260B370BB901A801483B3E
:101C70005B406105710508F473C080935105909332
:101C80005205A0935305B09354052DEC3CEC4CEC5D
:101C90005DE36091040270910502809106029091CB
:101CA00007020E9413126B017C0120E030E044EF38
:101CB00051E40E94201318160CF455C0C09204027F
:101CC000D0920502E0920602F09207022DEC3CEC65
:101CD0004CEC5EE36091000270910102809102027F
:101CE000909103020E9413126B017C0120E030E00E
:101CF00048E852E40E9420131816F4F1C092000242
:101D0000D0920102E0920202F092030280E095E09C
:101D10000E94EA058BE095E00E94EA0584E295E0E6
:101D20000E94EA056091040270910502809106020A
:101D30009091070241E00E94EC0584E395E00E9447
:101D4000EA05609100027091010280910202909177
:101D5000030241E00E94EC0581E495E00E94DD066B
:101D60000E942A03F6CC8092040290920502A0926F
:101D70000602B0920702AACF4092000250920102DE
:101D80006092020270920302C1CF8CE896E00C943C
:101D9000B807662777270C94090F1F93FC01992732
:101DA0008827BC01E89411911032E9F3193010F042
:101DB0001E30C8F31B3251F01D3249F4689406C03E
:101DC0000E94F40E610F711D811D911D1191105320
:101DD0001A30B0F33EF490958095709561957F4FE1
:101DE0008F4F9F4F1F910895592F482F372F262F20
:101DF000660F771F881F991F660F771F881F991F0F
:101E0000620F731F841F951F660F771F881F991F0E
:101E100008958F929F92AF92BF92CF92DF92EF92EE
:101E2000FF920F931F93CF93DF935C017B016115AA
:101E3000710519F0DB018D939C9385010F5F1F4F96
:101E4000F501D0818D2F90E00E9467106C01892BE5
:101E5000B9F5DD32B9F50F5F1F4FD5011196DC9151
:101E6000C1E05801F1E0AF1AB10843E050E064E589
:101E700071E0C5010E947010892B69F5680182E04C
:101E8000C80ED11C45E050E06FE471E0C6010E942D
:101E90007010892B21F4680197E0C90ED11CE11460
:101EA000F10419F0D701CD92DC9260E070E080E897
:101EB0009FEFC111FFC060E070E080E89FE7FAC0CB
:101EC0005801BBCFDB3229F485010E5F1F4FF501AE
:101ED000D181C0E0C6CF43E050E06CE471E0C501C1
:101EE0000E947010892BE9F0F80110E000E020E07A
:101EF00030E0A9015F01B0ED8B2E8D0E89E08815D1
:101F0000C8F19C2E689491F88C2F8870C2FF16C07F
:101F1000811102C00F5F1F4F3196D501DC91C92D91
:101F2000E9CFE114F10429F00E5F1F4FF70111838F
:101F3000008360E070E080EC9FE7BCC0882311F074
:101F400001501109A5E0B0E00E94CE119B01AC0147
:101F5000220F331F441F551F280D311D411D511DD8
:101F6000283999E93907490799E15907A8F2C66064
:101F70009C2ED2CFAEEF8A1206C0C3FD3CC09C2E71
:101F8000689493F8C9CFDF7DD534A9F580818D326F
:101F900039F4C061DF011296818162E070E006C011
:101FA000DF018B32C1F3119661E070E080535D0177
:101FB000A61AB70A8A30F8F4E0E8CE16ECE0DE069E
:101FC0005CF4B601660F771F660F771FC60ED71E2B
:101FD000CC0CDD1CC80ED11C5D01FFEFAF1ABF0A8F
:101FE0008C9180538A30A8F1C4FF03C0D194C1946E
:101FF000D1080C0D1D1DC1FF09C0E114F10431F021
:1020000081E0A81AB108D701AD92BC92CA01B9010A
:102010000E948D10C370C33009F490584B015C01CD
:1020200020E030E0A9010E948810882309F440C014
:10203000C3E8D1E017FF05C0119501951109CBE662
:10204000D1E06E01B8E1CB1AD10880E2E82EF12C84
:102050000FC0D501B1CFFE01259135914591549125
:102060000E191F09C501B4010E94EE104B015C015D
:10207000D501C4010E151F0574F72497F594E79454
:10208000CC16DD06A9F78A2F880F8B2F881F8F3F6C
:1020900049F020E030E0A901C501B4010E94881098
:1020A000811106C082E290E0909399068093980691
:1020B000C501B401DF91CF911F910F91FF90EF9077
:1020C000DF90CF90BF90AF909F908F900895911127
:1020D0000C945B11803219F089508550C8F708952F
:1020E000FB01DC014150504088F08D9181341CF09F
:1020F0008B350CF4805E659161341CF06B350CF40B
:10210000605E861B611171F3990B0895881BFCCFEB
:102110000E94CA1008F481E00895E89409C097FB72
:102120003EF490958095709561957F4F8F4F9F4FAE
:102130009923A9F0F92F96E9BB279395F6958795F2
:1021400077956795B795F111F8CFFAF4BB0F11F4B5
:1021500060FF1BC06F5F7F4F8F4F9F4F16C088235C
:1021600011F096E911C0772321F09EE8872F762F92
:1021700005C0662371F096E8862F70E060E02AF0D3
:102180009A95660F771F881FDAF7880F96958795BF
:1021900097F90895990F0008550FAA0BE0E8FEEF94
:1021A00016161706E807F907C0F012161306E4071B
:1021B000F50798F0621B730B840B950B39F40A2614
:1021C00061F0232B242B252B21F408950A2609F4F2
:1021D000A140A6958FEF811D811D08950E940111D8
:1021E0000C9475110E94671138F00E946E1120F056
:1021F000952311F00C945E110C94641111240C942D
:10220000A9110E94861170F3959FC1F3950F50E0BC
:10221000551F629FF001729FBB27F00DB11D639F98
:10222000AA27F00DB11DAA1F649F6627B00DA11D3E
:10223000661F829F2227B00DA11D621F739FB00DE4
:10224000A11D621F839FA00D611D221F749F332754
:10225000A00D611D231F849F600D211D822F762FED
:102260006A2F11249F5750409AF0F1F088234AF0CA
:10227000EE0FFF1FBB1F661F771F881F9150504036
:10228000A9F79E3F510580F00C945E110C94A911A2
:102290005F3FE4F3983ED4F3869577956795B795BD
:1022A000F795E7959F5FC1F7FE2B880F911D9695D7
:1022B000879597F9089599278827089597F99F6733
:1022C00080E870E060E008959FEF80EC08950024BE
:1022D0000A941616170618060906089500240A948B
:1022E00012161306140605060895092E0394000C11
:1022F00011F4882352F0BB0F40F4BF2B11F460FFA0
:1023000004C06F5F7F4F8F4F9F4F089557FD9058C8
:10231000440F551F59F05F3F71F04795880F97FBA9
:10232000991F61F09F3F79F0879508951216130663
:102330001406551FF2CF4695F1DF08C01616170692
:102340001806991FF1CF86957105610508940895C7
:10235000E894BB2766277727CB0197F90895052EC8
:1023600097FB1EF400940E94C61157FD07D00E94EF
:10237000E11107FC03D04EF40C94C6115095409522
:10238000309521953F4F4F4F5F4F08959095809521
:10239000709561957F4F8F4F9F4F08950E94031254
:1023A000A59F900DB49F900DA49F800D911D1124A9
:1023B0000895B7FF0C94CE110E94CE11821B930B8F
:1023C0000895A1E21A2EAA1BBB1BFD010DC0AA1F76
:1023D000BB1FEE1FFF1FA217B307E407F50720F08E
:1023E000A21BB30BE40BF50B661F771F881F991F09
:1023F0001A9469F760957095809590959B01AC0152
:10240000BD01CF010895A29FB001B39FC001A39F5A
:10241000700D811D1124911DB29F700D811D11241D
:10242000911D08955058BB27AA270E942A120C9488
:1024300075110E94671138F00E946E1120F039F476
:102440009F3F19F426F40C9464110EF4E095E7FB19
:102450000C945E11E92F0E94861158F3BA17620797
:1024600073078407950720F079F4A6F50C94A8115A
:102470000EF4E0950B2EBA2FA02D0B01B90190019F
:102480000C01CA01A0011124FF27591B99F0593FE3
:1024900050F4503E68F11A16F040A22F232F342F2B
:1024A0004427585FF3CF469537952795A795F04079
:1024B0005395C9F77EF41F16BA0B620B730B840B8E
:1024C000BAF09150A1F0FF0FBB1F661F771F881F46
:1024D000C2F70EC0BA0F621F731F841F48F487959E
:1024E00077956795B795F7959E3F08F0B0CF939590
:1024F000880F08F09927EE0F9795879508950E9409
:1025000093120C9475110E946E1158F00E9467117D
:1025100040F029F45F3F29F00C945E1151110C94A6
:10252000A9110C9464110E94861168F39923B1F3E8
:10253000552391F3951B550BBB27AA2762177307E9
:10254000840738F09F5F5F4F220F331F441FAA1F7D
:10255000A9F335D00E2E3AF0E0E832D09150504039
:10256000E695001CCAF72BD0FE2F29D0660F771FE7
:10257000881FBB1F261737074807AB07B0E809F0CD
:10258000BB0B802DBF01FF2793585F4F3AF09E3F52
:10259000510578F00C945E110C94A9115F3FE4F39F
:1025A000983ED4F3869577956795B795F7959F5F95
:1025B000C9F7880F911D9695879597F90895E1E0E1
:1025C000660F771F881FBB1F621773078407BA0740
:1025D00020F0621B730B840BBA0BEE1F88F7E0959B
:1025E00008950E948E1188F09F5798F0B92F99276F
:1025F000B751B0F0E1F0660F771F881F991F1AF0EE
:10260000BA95C9F714C0B13091F00E94A811B1E099
:1026100008950C94A811672F782F8827B85F39F098
:10262000B93FCCF3869577956795B395D9F73EF486
:1026300090958095709561957F4F8F4F9F4F08952E
:102640000E94CA1008F48FEF08950E94CA10880BE8
:10265000990B0895991B79E004C0991F961708F00B
:10266000961B881F7A95C9F780950895EE0FFF1F76
:10267000881F8BBF0790F691E02D19940E940312DA
:10268000B7FF0895821B930B08950F931F93CF9369
:10269000DF938230910510F482E090E0E0919C0697
:1026A000F0919D0630E020E0B0E0A0E0309799F492
:1026B0002115310509F44AC0281B390B2430310596
:1026C000D8F58A819B816115710589F1FB0193839E
:1026D0008283FE0111C0408151810281138148171C
:1026E0005907E0F04817590799F4109761F01296CE
:1026F0000C93129713961C933296CF01DF91CF91D2
:102700001F910F91089500939C0610939D06F4CF9E
:102710002115310551F04217530738F0A901DB01AB
:102720009A01BD01DF01F801C1CFEF01F9CF90930C
:102730009D0680939C06CDCFFE01E20FF31F81938F
:1027400091932250310939832883D7CF20919A065B
:1027500030919B06232B41F420910A0230910B0209
:1027600030939B0620939A0620910802309109022B
:102770002115310541F42DB73EB740910C0250911F
:102780000D02241B350BE0919A06F0919B06E2178F
:10279000F307A0F42E1B3F0B2817390778F0AC0184
:1027A0004E5F5F4F2417350748F04E0F5F1F509361
:1027B0009B0640939A06819391939FCFF0E0E0E0CF
:1027C0009CCFCF93DF930097E9F0FC0132971382FF
:1027D0001282A0919C06B0919D06ED0130E020E0B0
:1027E0001097A1F420813181820F931F20919A06C6
:1027F00030919B062817390709F061C0F0939B06BA
:10280000E0939A06DF91CF910895EA01CE17DF0792
:10281000E8F54A815B819E0141155105B1F7E90157
:10282000FB83EA8349915991C40FD51FEC17FD072B
:1028300061F4808191810296840F951FE90199834B
:102840008883828193819B838A83F0E0E0E0129603
:102850008D919C9113970097B9F52D913C9111970B
:10286000CD010296820F931F20919A0630919B060C
:102870002817390739F6309751F510929D061092B6
:102880009C06B0939B06A0939A06BCCFD383C283C9
:1028900040815181840F951FC817D90761F44E5F9D
:1028A0005F4F88819981480F591F518340838A81E6
:1028B0009B81938382832115310509F0B0CFF0937A
:1028C0009D06E0939C069ECFFD01DC01C0CF1382E4
:1028D0001282D7CF4F925F926F927F928F929F9288
:1028E000AF92BF92CF92DF92EF92FF920F931F931E
:1028F000CF93DF938C01009799F4CB01DF91CF91B7
:102900001F910F91FF90EF90DF90CF90BF90AF900D
:102910009F908F907F906F905F904F900C94451395
:10292000FC01E60FF71F9C0122503109E217F30763
:1029300008F4AEC0D901CD91DC911197C617D70725
:1029400020F1C530D10578F0CE010497861797079E
:1029500050F0C61BD70B2297C193D1936D937C93F4
:10296000CF010E94E113C801DF91CF911F910F9118
:10297000FF90EF90DF90CF90BF90AF909F908F909F
:102980007F906F905F904F9008955B01AC1ABD0AE5
:102990004C018C0E9D1EA0919C06B0919D06512C61
:1029A000412CF12CE12C109731F580919A069091F1
:1029B0009B068815990509F05CC04616570608F075
:1029C00058C08091080290910902009741F48DB798
:1029D0009EB740910C0250910D02841B950BE81795
:1029E000F90708F055C0F0939B06E0939A06F901A9
:1029F00071836083B8CF8D919C91119712966C90E2
:102A0000129713967C901397A815B90559F56C0188
:102A100042E0C40ED11CCA14DB0420F1AC014A19F7
:102A20005B09DA011296159780F0628273825183F6
:102A30004083D9016D937C93E114F10471F0D701C7
:102A40001396FC93EE9312978ECF22968C0F9D1FB8
:102A5000F90191838083F301EFCFF0939D06E0931A
:102A60009C0681CF4816590608F42C017D01D3013C
:102A70009ACFCB010E9445137C01009749F0AE012B
:102A8000B8010E945315C8010E94E11387016BCF62
:102A900010E000E068CF9111089581568A5108F442
:102AA000805285580895FB01DC0102C001900D920F
:102AB00041505040D8F70895FB01DC018D91019001
:102AC00080190110D9F3990B0895FB01DC010190E5
:102AD0000D920020E1F7089511E0C8E4D1E000E094
:102AE00006C0802FFE010E9436132196011DC934B5
:102AF000D10780E00807A9F7F894FFCF00006842EB
:102B00000000D04100009E06800000000000BD02D1
:102B1000270254020A038502630277026E616E0087
:102B2000696E66006F7666000D0A006F6E006F6654
:102B3000660053544154555320004C494748545360
:102B40005B73616C6F6E3D002C6368616D627265D2
:102B50003D002C63756973696E653D005D2000441E
:102B60004F4F523D0025200057494E444F573D00DE
:102B7000504C5547535B313D002C323D00454E567D
:102B80005B543D00432C483D00255D003D3D3D200C
:102B90004F56594F4E2050524F544555532053498C
:102BA0004D20434F4D4D414E4453203D3D3D004C43
:102BB000494748545F53414C4F4E5F4F4E207C2055
:102BC0004C494748545F53414C4F4E5F4F46460077
:102BD0004C494748545F4348414D4252455F4F4E30
:102BE000207C204C494748545F4348414D42524560
:102BF0005F4F4646004C494748545F435549534947
:102C00004E455F4F4E207C204C494748545F43550A
:102C10004953494E455F4F464600444F4F525F4F20
:102C200050454E207C20444F4F525F434C4F5345FC
:102C3000207C20444F4F525F3C302E2E3130303EAE
:102C40000057494E444F575F30207C2057494E442F
:102C50004F575F3530207C2057494E444F575F31E6
:102C60003030207C2057494E444F575F3C302E2E49
:102C70003130303E00504C5547315F4F4E207C2064
:102C8000504C5547315F4F464600504C5547325FD8
:102C90004F4E207C20504C5547325F4F46460045F2
:102CA0004E565F545F3C76616C75653E202020284F
:102CB0006578616D706C653A20454E565F545F32A1
:102CC000372E352900454E565F485F3C76616C755E
:102CD000653E202020286578616D706C653A20453E
:102CE0004E565F485F3631290053544154555300C6
:102CF00048454C50003D3D3D3D3D3D3D3D3D3D3D0C
:102D00003D3D3D3D3D3D3D3D3D3D3D3D3D3D3D3DF3
:102D10003D3D3D3D3D3D3D004F56594F4E2050728B
:102D20006F746575732073696D756C6174696F6E0E
:102D300020737461727465642E004F4B20414C4CBB
:102D40005F4F4646004C494748545F53414C4F4EF5
:102D50005F4F4E004C494748545F4348414D4252F3
:102D6000455F4F4E004C494748545F4355495349CE
:102D70004E455F4F4E00504C5547315F4F4E00500F
:102D80004C5547325F4F4E00444F4F525F4F5045B6
:102D90004E00444F4F525F434C4F534500444F4FFA
:102DA000525F0057494E444F575F00454E565F549F
:102DB0005F00454E565F485F0045525220554E4BCE
:102DC0004E4F574E5F434D443A2000547970652072
:102DD00048454C5020666F7220636F6D6D616E6464
:102DE000206C6973742E004F4B20004552522043D3
:102DF0004D445F544F4F5F4C4F4E470054454C4538
:102E00004D4554525920006F76796F6E2F7374615F
:102E10007475732F73656E736F722F656E762000F5
:102E20007B2274656D7065726174757265223A00FB
:102E30002C2268756D6964697479223A007D0000FE
:020000040003F7
:10E000000D9489F10D94B2F10D94B2F10D94B2F129
:10E010000D94B2F10D94B2F10D94B2F10D94B2F1F0
:10E020000D94B2F10D94B2F10D94B2F10D94B2F1E0
:10E030000D94B2F10D94B2F10D94B2F10D94B2F1D0
:10E040000D94B2F10D94B2F10D94B2F10D94B2F1C0
:10E050000D94B2F10D94B2F10D94B2F10D94B2F1B0
:10E060000D94B2F10D94B2F10D94B2F10D94B2F1A0
:10E070000D94B2F10D94B2F10D94B2F10D94B2F190
:10E080000D94B2F10D94B2F10D94B2F10D94B2F180
:10E090000D94B2F10D94B2F10D94B2F10D94B2F170
:10E0A0000D94B2F10D94B2F10D94B2F10D94B2F160
:10E0B0000D94B2F10D94B2F10D94B2F10D94B2F150
:10E0C0000D94B2F10D94B2F10D94B2F10D94B2F140
:10E0D0000D94B2F10D94B2F10D94B2F10D94B2F130
:10E0E0000D94B2F141546D656761323536300041AF
:10E0F000726475696E6F206578706C6F72657220DE
:10E1000073746B3530305632206279204D4C530099
:10E11000426F6F746C6F616465723E004875683F52
:10E1200000436F6D70696C6564206F6E203D200048
:10E130004350552054797065202020203D20005FF9
:10E140005F4156525F415243485F5F3D2000415658
:10E1500052204C696243205665723D20004743437C
:10E160002056657273696F6E203D20004350552024
:10E1700049442020202020203D20004C6F7720663D
:10E18000757365202020203D20004869676820665F
:10E190007573652020203D200045787420667573D6
:10E1A00065202020203D20004C6F636B2066757336
:10E1B000652020203D20004D617220203720323024
:10E1C000313300312E362E3800342E332E350056A2
:10E1D00023202020414444522020206F7020636F70
:10E1E00064652020202020696E73747275637469E1
:10E1F0006F6E2061646472202020496E74657272B3
:10E20000757074006E6F20766563746F7200726A49
:10E210006D702020006A6D70200057686174207056
:10E220006F72743A00506F7274206E6F7420737541
:10E2300070706F72746564004D7573742062652030
:10E2400061206C6574746572002000577269747483
:10E25000696E672045450052656164696E672045B7
:10E26000450045452065727220636E743D00504F35
:10E27000525400303D5A65726F2061646472003FF1
:10E280003D43505520737461747300403D454550C3
:10E29000524F4D207465737400423D426C696E6B41
:10E2A000204C454400453D44756D70204545505215
:10E2B0004F4D00463D44756D7020464C415348001B
:10E2C000483D48656C70004C3D4C69737420492F83
:10E2D0004F20506F72747300513D51756974005234
:10E2E0003D44756D702052414D00563D73686F7707
:10E2F00020696E7465727275707420566563746FF0
:10E30000727300593D506F727420626C696E6B00BD
:10E310002A0011241FBECFEFD1E2DEBFCDBF01E046
:10E320000CBF12E0A0E0B2E0EEE1FDEF03E00BBFB6
:10E3300002C007900D92A030B107D9F712E0A0E01B
:10E34000B2E001C01D92AE30B107E1F70F9460F367
:10E350000D948DFE01E20EBF0FEF0DBF11241FBE05
:10E360000D9460F30D9400F020E030E040ED57E0B4
:10E3700005C0FA013197F1F72F5F3F4F2817390792
:10E38000C0F308959C01260F311DC901A0E0B0E043
:10E390002F5F3F4FABBFFC018791882361F08093D3
:10E3A000C6008091C00086FFFCCF8091C0008064D1
:10E3B0008093C000EACF08958DE08093C6008091DD
:10E3C000C00086FFFCCF8091C00080648093C000B5
:10E3D0008AE08093C6008091C00086FFFCCF8091C8
:10E3E000C00080648093C00008950F94C2F10F9420
:10E3F000DCF10895FC019081992359F09093C600B7
:10E400008091C00086FFFCCF8091C0008064809323
:10E41000C0003196992379F70895282F982F929567
:10E420009F70892F805D8A3308F0895F8093C600D2
:10E430008091C00086FFFCCF8091C00080648093F3
:10E44000C000822F8F70982F905D9A3308F0995FEB
:10E450009093C6008091C00086FFFCCF8091C000E1
:10E4600080648093C00008959C01FB01853691056E
:10E470001CF46330710594F0C90164E670E00F94F8
:10E480002EFE605D7F4F6093C6008091C00086FFC6
:10E49000FCCF8091C00080648093C0002B30310598
:10E4A00014F43297B4F0C90164E670E00F942EFEC4
:10E4B0006AE070E00F942EFE605D7F4F6093C600AF
:10E4C0008091C00086FFFCCF8091C0008064809363
:10E4D000C000C9016AE070E00F942EFEC0968093E0
:10E4E000C6008091C00086FFFCCF8091C000806490
:10E4F0008093C00008951F93182F8EE692EE60E07F
:10E500000F94C2F11093C6008091C00086FFFCCF2B
:10E510008091C00080648093C0000F94DCF11F9153
:10E5200008952F923F924F925F926F927F928F92B7
:10E530009F92AF92BF92CF92DF92EF92FF920F9392
:10E540001F93DF93CF93CDB7DEB762970FB6F894E2
:10E55000DEBF0FBECDBF382E622ECA01DB015C01CB
:10E560006D01772420E2222E2E010894411C511CBB
:10E570008BC081E0A81680E0B80681E0C80680E084
:10E58000D80628F0C601AA27BB270F940DF2BB2797
:10E59000AD2D9C2D8B2D0F940DF28A2D0F940DF225
:10E5A0002092C6008091C00086FFFCCF8091C00001
:10E5B00080648093C0009DE29093C6008091C0006B
:10E5C00086FFFCCF8091C00080648093C0002092C1
:10E5D000C6008091C00086FFFCCF8091C00080649F
:10E5E0008093C00019828601750188249924A1E0D6
:10E5F0003A1651F03A1620F0B2E03B1661F409C029
:10E600000BBFF701779007C0C7010F9477FE782EF4
:10E6100002C0F7017080872D0F940DF22092C60082
:10E620008091C00086FFFCCF8091C0008064809301
:10E63000C000872D8052F401EF70F0708F3520F408
:10E64000E40DF51D708204C0E40DF51D8EE280839B
:10E650000894E11CF11C011D111D0894811C911CE2
:10E6600090E18916910409F0C2CF80E190E0A0E02A
:10E67000B0E0A80EB91ECA1EDB1E198AC2010F9493
:10E68000FAF10F94DCF16A94662009F072CF629679
:10E690000FB6F894DEBF0FBECDBFCF91DF911F91B3
:10E6A0000F91FF90EF90DF90CF90BF90AF909F9031
:10E6B0008F907F906F905F904F903F902F90089534
:10E6C0002F923F924F925F926F927F928F929F9282
:10E6D000AF92BF92CF92DF92EF92FF920F931F9370
:10E6E000DF93CF93CDB7DEB7CD53D1400FB6F894BB
:10E6F000DEBF0FBECDBF01E20EBF0FEF0DBF94B75F
:10E70000F894A89514BE80916000886180936000A1
:10E7100010926000789493FF05C0E0910002F091A0
:10E7200001021995279A2F9A8091C00082608093E8
:10E73000C00080E18093C40088E18093C1000000A4
:10E74000EE24FF24870144E0A42EB12CCC24DD2448
:10E7500024C0C5010197F1F70894E11CF11C011DCB
:10E76000111D21E2E2162EE4F20620E0020720E06D
:10E77000120718F031E0C32ED12CC801B70127ECE5
:10E780003BE140E050E00F9441FE611571058105C9
:10E79000910519F485B1805885B98091C00087FD35
:10E7A00003C0C114D104A9F2A6014F5F5F4FC25E3E
:10E7B000DE4F59834883CE51D140C25EDE4F8881FF
:10E7C0009981CE51D140019711F00D9410FEC05D9A
:10E7D000DE4F19821882C053D14060E0C15DDE4F28
:10E7E0001882CF52D14088249924C35DDE4F19820C
:10E7F0001882CD52D140C05EDE4F188219821A8233
:10E800001B82C052D140CE5CDE4F188219821A8220
:10E810001B82C253D140EE24FF2487010BBFF701B6
:10E8200007911691C45CDE4F19830883CC53D14005
:10E830000D940BFEC25EDE4F28813981CE51D1404E
:10E840002130310509F52091C600C25EDE4F1982E4
:10E850001882CE51D14022C02F5F3F4F4F4F5F4FA4
:10E86000213082E138078AE7480780E0580780F0C6
:10E87000C45CDE4FE881F981CC53D140EF5FFF4F9C
:10E8800019F0EE27FF27099420E030E040E050E047
:10E890008091C00087FFE0CF2091C600C35DDE4FAE
:10E8A00048815981CD52D1404F5F5F4FC35DDE4FEC
:10E8B00059834883CD52D140213209F063C64A3092
:10E8C000510508F05FC60894811C911C53E0851621
:10E8D000910409F059C600E010E018C081E280936D
:10E8E000C6008091C00086FFFCCF8091C00080648C
:10E8F0008093C0002F5F3F4F2931310579F70F9486
:10E90000DCF10F5F1F4F0530110519F020E030E0FA
:10E91000E5CF10920A0210920B0210920C02109294
:10E920000D02109206021092070210920802109235
:10E930000902109202021092030210920402109235
:10E9400005028FEE90EE60E00F94F5F180E191EE1C
:10E9500060E00F94C2F18091C00087FFFCCF9091DE
:10E96000C600903608F09F759032B8F09093C600BC
:10E970008091C00086FFFCCF8091C00080648093AE
:10E98000C000A0E2A093C6008091C00086FFFCCF2B
:10E990008091C00080648093C000983409F4D7C18E
:10E9A0009934B8F4923409F459C1933458F490333B
:10E9B00019F1903308F4E3C59F33A1F1903409F0C5
:10E9C000DEC5BDC0953409F470C1963409F0D7C5D1
:10E9D00098C1923509F42BC2933538F49C3409F46C
:10E9E000F5C1913509F0CBC518C2963509F445C279
:10E9F000993509F0C4C567C483E792EE62E00F94CD
:10EA0000F5F110920602109207021092080210927D
:10EA1000090210920A0210920B0210920C0210923C
:10EA20000D0213C18FE792EE62E00F94F5F18FEEC5
:10EA300090EE60E00F94F5F181E291EE60E00F94CA
:10EA4000C2F187EB91EE60E00F94F5F180E391EE77
:10EA500060E00F94C2F184EE90EE60E00F94F5F167
:10EA60008FE391EE60E00F94C2F186E090E061E008
:10EA700070E00F9434F20F94DCF18DE591EE60E0DC
:10EA80000F94C2F189EC91EE60E00F94F5F18EE401
:10EA900091EE60E00F94C2F183EC91EE60E00F9490
:10EAA000F5F18CE691EE60E00F94C2F18EE10F94E7
:10EAB0000DF288E90F940DF281E00F940DF20F949E
:10EAC000DCF18BE791EE60E00F94C2F119E0E0E039
:10EAD000F0E010935700E4918E2F0F940DF20F94F5
:10EAE000DCF18AE891EE60E00F94C2F1E3E0F0E03F
:10EAF00010935700E4918E2F0F940DF20F94DCF1D8
:10EB000089E991EE60E00F94C2F1E2E0F0E0109349
:10EB10005700E4918E2F0F940DF20F94DCF188EAE8
:10EB200091EE60E00F94C2F1E1E0F0E01093570045
:10EB30001491812F0F940DF20F94DCF107CF8BE825
:10EB400092EE62E00F94F5F18BE492EE60E00F94A8
:10EB5000F5F10F94DCF100E010E019C0C8016F2D51
:10EB60000F947FFEFF2031F489E492EE60E00F9471
:10EB7000C2F10BC0F092C6008091C00086FFFCCFAE
:10EB80008091C00080648093C0000F5F1F4FC80158
:10EB900081519F41A0E0B0E0ABBFFC01F790BAE229
:10EBA000FB1621F0E2E000301E07C1F60F94DCF105
:10EBB0000F94DCF187E592EE60E00F94F5F10F948D
:10EBC000DCF1CC24DD2400E010E01EC0C8010F946D
:10EBD00077FEF82E882331F489E492EE60E00F94FA
:10EBE000C2F10BC08093C6008091C00086FFFCCFAD
:10EBF0008091C00080648093C000FE1419F00894D6
:10EC0000C11CD11C0F5F1F4FC80181519F41A0E063
:10EC1000B0E0ABBFFC01E790FAE2EF1621F022E092
:10EC20000030120799F60F94DCF10F94DCF182E6C4
:10EC300092EE60E00F94C2F1C60161E070E00F94C3
:10EC400034F20F94DCF10F94DCF110920202109276
:10EC50000302109204021092050278CE89E992EE26
:10EC600062E00F94F5F1279A2F9A16C02F9880E052
:10EC700090E0E0EDF7E03197F1F7019684369105E9
:10EC8000C1F72F9A80E090E0E0EDF7E03197F1F7DF
:10EC9000019684369105C1F78091C00087FFE6CFC9
:10ECA0008091C00087FFFCCF64C485EA92EE62E0E9
:10ECB0000F94F5F140910202509103026091040219
:10ECC0007091050281E020E10F9491F2809102029F
:10ECD00090910302A0910402B091050280509F4FD1
:10ECE000AF4FBF4F8093020290930302A0930402A0
:10ECF000B093050280509041A040B04008F426CE69
:10ED0000A4CF83EB92EE62E00F94F5F140910602FE
:10ED100050910702609108027091090280E020E1A1
:10ED20000F9491F28091060290910702A09108023F
:10ED3000B091090280509F4FAF4FBF4F80930602A2
:10ED400090930702A0930802B0930902FFCD80ECD4
:10ED500092EE62E00F94F5F183E792EE60E00F949B
:10ED6000F5F18FE792EE60E00F94F5F18BE892EE0B
:10ED700060E00F94F5F189E992EE60E00F94F5F10F
:10ED800085EA92EE60E00F94F5F183EB92EE60E09D
:10ED90000F94F5F180EC92EE60E00F94F5F187ECC2
:10EDA00092EE60E00F94F5F188ED92EE60E00F9442
:10EDB000F5F18FED92EE60E00F94F5F18AEE92EEB0
:10EDC00060E00F94F5F183E093EEBDCD87EC92EE19
:10EDD00062E00F94F5F181E40F947BF282E40F94EA
:10EDE0007BF283E40F947BF284E40F947BF285E45E
:10EDF0000F947BF286E40F947BF287E40F947BF20E
:10EE000088E40F947BF28AE40F947BF28BE40F94F6
:10EE10007BF28CE40F947BF299CD88ED92EE62E068
:10EE20000F94F5F1772473948824992409C48FED05
:10EE300092EE62E00F94F5F140910A0250910B02BC
:10EE400060910C0270910D0282E020E10F9491F22A
:10EE500080910A0290910B02A0910C02B0910D02D8
:10EE600080509F4FAF4FBF4F80930A0290930B0289
:10EE7000A0930C02B0930D0269CD8AEE92EE62E08F
:10EE80000F94F5F184EE90EE60E00F94F5F18FECC5
:10EE900091EE60E00F94F5F1662477244301CC5D98
:10EEA000DE4F19821882C452D140D401C301B695F5
:10EEB000A79597958795CA5DDE4F88839983AA8326
:10EEC000BB83C652D140CC5DDE4FA881B981C4520C
:10EED000D1401196CC5DDE4FB983A883C452D14096
:10EEE000CD0162E070E00F9434F2B0E2B093C6005E
:10EEF0008091C00086FFFCCF8091C0008064809329
:10EF0000C000EDE2E093C6008091C00086FFFCCF18
:10EF10008091C00080648093C000F0E2F093C6004E
:10EF20008091C00086FFFCCF8091C00080648093F8
:10EF3000C000CA5DDE4FE880F9800A811B81C6529D
:10EF4000D140BB27A12F902F8F2D0F940DF2CA5DBA
:10EF5000DE4F8881C652D1400F940DF2B0E2FB2EF5
:10EF6000F092C6008091C00086FFFCCF8091C00067
:10EF700080648093C0000DE30093C6008091C000C0
:10EF800086FFFCCF8091C00080648093C00010E2B7
:10EF90001093C6008091C00086FFFCCF8091C00016
:10EFA00080648093C0008BBEF3012791C65DDE4F65
:10EFB0002883CA52D140A22EBB24CC24DD2408943D
:10EFC000611C711C811C911C8BBEF3018791282E42
:10EFD0003324442455240894611C711C811C911C09
:10EFE0008BBEF3013791C55DDE4F3883CB52D140E4
:10EFF0000894611C711C811C911C8BBEF30147910C
:10F00000C45DDE4F4883CC52D140ADEFEA2EAFEF66
:10F01000FA2EAFEF0A2FAFEF1A2F6E0C7F1C801E57
:10F02000911E142D032DF22CEE24EA0CFB1C0C1D5A
:10F030001D1D0F940DF220E22093C6008091C000A8
:10F0400086FFFCCF8091C00080648093C000C65DC5
:10F05000DE4F8881CA52D1400F940DF230E23093D6
:10F06000C6008091C00086FFFCCF8091C000806404
:10F070008093C000C45DDE4F8881CC52D1400F9494
:10F080000DF240E24093C6008091C00086FFFCCFA5
:10F090008091C00080648093C000C55DDE4F888190
:10F0A000CB52D1400F940DF250E25093C6008091A4
:10F0B000C00086FFFCCF8091C00080648093C000B8
:10F0C0008FEFE8168FEFF80680E0080780E018075A
:10F0D00031F484E092EE60E00F94C2F1DFC0D80119
:10F0E000C7018070907CA070B0708050904CA040A0
:10F0F000B040D1F52FEF3FE340E050E0E222F322B1
:10F1000004231523CA5DDE4FA880B980CA80DB8046
:10F11000C652D140AE0CBF1CC01ED11EAA0CBB1CD7
:10F12000CC1CDD1C8EE092EE60E00F94C2F1BB2798
:10F13000A12F902F8F2D0F940DF28E2D0F940DF285
:10F1400030E23093C6008091C00086FFFCCF8091F2
:10F15000C00080648093C0004EE34093C60080915D
:10F16000C00086FFFCCF87C08EE09EEFA0E0B0E03D
:10F17000E822F9220A231B239CE0E91694E9F90608
:10F1800090E0090790E0190709F088C0C45DDE4FE0
:10F19000A881CC52D140EA2EFF2400E010E0102FCD
:10F1A0000F2DFE2CEE24C55DDE4FB881CB52D14031
:10F1B000EB0EF11C011D111DD601C501817090706F
:10F1C000A070B070DC0199278827E80EF91E0A1F8D
:10F1D0001B1F20EF30E040E050E0A222B322C42207
:10F1E000D52241E1AA0CBB1CCC1CDD1C4A95D1F7F1
:10F1F000EA0CFB1C0C1D1D1D81E090E0A0E0B0E0BE
:10F20000282239224A225B2235E1220C331C441C7D
:10F21000551C3A95D1F7E20CF31C041D151D57013E
:10F220006801AA0CBB1CCC1CDD1C85E192EE60E0E1
:10F230000F94C2F1C801AA27BB270F940DF2BB2778
:10F24000A12F902F8F2D0F940DF28E2D0F940DF274
:10F2500090E29093C6008091C00086FFFCCF809121
:10F26000C00080648093C000AEE3A093C60080918C
:10F27000C00086FFFCCF8091C00080648093C000F6
:10F28000C601AA27BB270F940DF2BB27AD2D9C2DDD
:10F290008B2D0F940DF28A2D0F940DF20F94DCF14B
:10F2A000CC5DDE4FE881F981C452D140F99709F471
:10F2B0004DCBF4E0EF2EF12C012D112D6E0C7F1CA7
:10F2C000801E911EF2CD83E093EE62E00F94F5F183
:10F2D0008AE192EE60E00F94C2F18091C00087FF56
:10F2E000FCCF1091C6001F751093C6008091C0001E
:10F2F00086FFFCCF8091C00080648093C0000F9493
:10F30000DCF1812F81548A3108F036C1163409F4BA
:10F3100095C0173490F4133409F44EC0143430F40B
:10F320001134F1F0123409F01DC130C0143409F465
:10F3300059C0153409F016C16BC01A3409F4C4C0A1
:10F340001B3438F4173409F48FC0183409F00AC19B
:10F35000A1C01B3409F4D2C01C3409F003C1E8C0B9
:10F360008FEF81B90DC082B1809582B980E090E0C5
:10F37000E0EDF7E03197F1F70196883C9105C1F790
:10F380008091C00087FFEFCF12B8EFC08FEF84B934
:10F390000DC085B1809585B980E090E0E0EDF7E0A3
:10F3A0003197F1F70196883C9105C1F78091C00033
:10F3B00087FFEFCF15B8D9C08FEF87B90DC088B1DF
:10F3C000809588B980E090E0E0EDF7E03197F1F7C3
:10F3D0000196883C9105C1F78091C00087FFEFCF6F
:10F3E00018B8C3C08FEF8AB90DC08BB180958BB9A7
:10F3F00080E090E0E0EDF7E03197F1F70196883C8E
:10F400009105C1F78091C00087FFEFCF1BB8ADC059
:10F410008FEF8DB90DC08EB180958EB980E090E0F0
:10F42000E0EDF7E03197F1F70196883C9105C1F7DF
:10F430008091C00087FFEFCF1EB897C08FEF80BBD1
:10F440000DC081B3809581BB80E090E0E0EDF7E0F6
:10F450003197F1F70196883C9105C1F78091C00082
:10F4600087FFEFCF11BA81C08FEF83BB0DC084B38C
:10F47000809584BB80E090E0E0EDF7E03197F1F714
:10F480000196883C9105C1F78091C00087FFEFCFBE
:10F4900014BA6BC08FEF809301010FC080910201FD
:10F4A00080958093020180E090E0E0EDF7E03197F5
:10F4B000F1F70196883C9105C1F78091C00087FF64
:10F4C000EDCF1092020151C08FEF809304010FC065
:10F4D0008091050180958093050180E090E0E0ED4A
:10F4E000F7E03197F1F70196883C9105C1F78091DB
:10F4F000C00087FFEDCF1092050137C08FEF8093DA
:10F5000007010FC08091080180958093080180E079
:10F5100090E0E0EDF7E03197F1F70196883C910536
:10F52000C1F78091C00087FFEDCF109208011DC088
:10F530008FEF80930A010FC080910B01809580931B
:10F540000B0180E090E0E0EDF7E03197F1F70196F4
:10F55000883C9105C1F78091C00087FFEDCF1092E4
:10F560000B0103C085E292EEEEC98091C00087FFD7
:10F57000FCCF8091C600EAC988E392EEE4C98CE131
:10F5800091EEE1C988249924933011F1943028F444
:10F59000913089F09230B8F408C0953061F195301F
:10F5A000F0F0963009F048C043C02B3109F042C951
:10F5B00091E06BE13FC96227C15DDE4F2883CF52E6
:10F5C000D14092E037C9B22FA0E0622793E032C960
:10F5D000822F90E0A82BB92B622794E02BC92E3004
:10F5E00009F039C3622795E0C05DDE4F19821882A9
:10F5F000C053D1401FC9E1E0F0E0EC0FFD1FC05D3A
:10F60000DE4F08811981C053D140E00FF11F2083E4
:10F610000F5F1F4FC05DDE4F19830883C053D14079
:10F6200062270A171B0709F005C9D80196E002C92D
:10F63000261709F010C303C0973009F0FBC87724E0
:10F640009981933109F412C19431C8F4963009F4C8
:10F65000D8C0973050F4923009F406C1933009F4C1
:10F660006DC0913009F059C253C0913109F477C08F
:10F67000923108F0BBC0903109F04FC2F5C098310B
:10F6800009F487C0993150F4953109F4EFC09531F0
:10F6900008F4C6C1963109F040C2C2C19A3109F4DA
:10F6A0006CC09A3108F491C09B3109F45BC09D3164
:10F6B00009F033C29D81903359F48F81882311F46E
:10F6C0009EE11CC0813011F091E018C098E916C08D
:10F6D000892F807591F0903539F4E0E0F0E089E011
:10F6E0008093570094910AC0983539F4E3E0F0E034
:10F6F00089E080935700949101C090E01A821B82A8
:10F700008D818C831D829E831F8227E030E009C299
:10F710001A8288E08B8381E48C8386E58D8382E581
:10F720008E8389E48F8383E5888780E589878FE5E9
:10F730008A8782E38B872BE030E0F3C18A818139AD
:10F7400041F0823941F0803911F48FE005C080E04A
:10F7500003C082E001C08AE01A828B8344C0772410
:10F76000739482C08D81882311F48EE12CC0813086
:10F7700011F081E028C088E926C01A82E1E0F0E0BB
:10F7800089E08093570084918B831C8224E030E0D1
:10F79000C8C18B81803589F48C81883039F4E2E0EE
:10F7A000F0E089E08093570084910DC0E0E0F0E044
:10F7B00089E080935700849106C0E3E0F0E089E09F
:10F7C0008093570084911A82DFCF8D81836C99E0FA
:10F7D000E1E0F0E0082E90935700E89507B600FCB2
:10F7E000FDCF1A821B8223E030E09BC180EC8A832C
:10F7F000CE5CDE4F188219821A821B82C253D1401E
:10F800008EC18A8190E0A0E0B0E0582F44273327D2
:10F8100022278B8190E0A0E0B0E0DC0199278827C7
:10F82000282B392B4A2B5B2B8D8190E0A0E0B0E098
:10F83000282B392B4A2B5B2B8C8190E0A0E0B0E089
:10F84000BA2FA92F982F8827282B392B4A2B5B2BCF
:10F85000220F331F441F551FC05EDE4F288339839C
:10F860004A835B83C052D1401A8259C13A81C95C34
:10F87000DE4F3883C753D140CA5CDE4F1882C6536F
:10F88000D1408B81C82EDD24CA5CDE4F488159816E
:10F89000C653D140C42AD52A933109F082C0CE5C28
:10F8A000DE4F88819981AA81BB81C253D1408050AB
:10F8B000904CA340B04030F583E0CE5CDE4FE88052
:10F8C000F9800A811B81C253D140F70100935B008C
:10F8D00080935700E89507B600FCFDCFCE5CDE4F65
:10F8E000088119812A813B81C253D14000501F4FAA
:10F8F0002F4F3F4FCE5CDE4F088319832A833B8313
:10F90000C253D140C05EDE4F488159816A817B81FC
:10F91000C052D140DE011B9631E08C9111962C91A2
:10F9200011971296C75CDE4F2883C953D140C85C3B
:10F93000DE4F1882C853D14090E0C85CDE4FE881AA
:10F94000F981C853D1408E2B9F2B0C01FA01609393
:10F950005B0030935700E89511244E5F5F4F6F4F67
:10F960007F4F0EEFE02E0FEFF02ECE0CDF1CC114F8
:10F97000D10499F685E0C05EDE4F088119812A81A5
:10F980003B81C052D140F80120935B008093570027
:10F99000E89507B600FCFDCF81E180935700E8951C
:10F9A00035C0C05EDE4F88819981AA81BB81C0527B
:10F9B000D140B695A795979587957C018601ABE0D8
:10F9C000AA2EB12CAC0EBD1E0BC0D5016D915D01F0
:10F9D000C7010F947FFE0894E11CF11C01501040F8
:10F9E0000115110591F7A60160E070E0440F551F65
:10F9F000661F771FC05EDE4FE880F9800A811B8199
:10FA0000C052D1404E0D5F1D601F711F1A82C05E33
:10FA1000DE4F488359836A837B83C052D1407FC0C5
:10FA2000FA80C55CDE4FF882CB53D140C65CDE4F16
:10FA30001882CA53D1408B81C82EDD24C65CDE4FAC
:10FA400008811981CA53D140C02AD12A1A828981DA
:10FA5000BE016D5F7F4F843121F59601C05EDE4FA0
:10FA6000E880F9800A811B81C052D1400BBFF701A9
:10FA700087919691DB018C9311969C936E5F7F4FDB
:10FA8000D801C7010296A11DB11DC05EDE4F88835B
:10FA90009983AA83BB83C052D14022503040F1F6F3
:10FAA00036C0C05EDE4F288139814A815B81C052F9
:10FAB000D1400894C108D108760100E010E0089414
:10FAC000C11CD11C0894E11CF11C011D111DE20E8A
:10FAD000F31E041F151F21BDBB27A52F942F832FB5
:10FAE00082BD2F5F3F4F4F4F5F4FF89A80B5DB01CC
:10FAF0008D93BD012E153F054007510761F7C05E8C
:10FB0000DE4F288339834A835B83C052D1409601FC
:10FB10002D5F3F4FFB01108204C080EC8A8322E0FE
:10FB200030E08BE18093C6008091C00086FFFCCF5F
:10FB30008091C00080648093C000C15DDE4FF88179
:10FB4000CF52D140F093C6008091C00086FFFCCF19
:10FB50008091C00080648093C000432F3093C60022
:10FB60008091C00086FFFCCF8091C00080648093AC
:10FB7000C000922F2093C6008091C00086FFFCCF6A
:10FB80008091C00080648093C0008EE08093C600A6
:10FB90008091C00086FFFCCF8091C000806480937C
:10FBA000C00065E1C15DDE4FE880CF52D1406E25D7
:10FBB00069276427FE01319610C090819093C6009A
:10FBC0008091C00086FFFCCF31968091C000806498
:10FBD0008093C0006927215030402115310569F715
:10FBE0006093C6008091C00086FFFCCF8091C0006A
:10FBF00080648093C00085B1805885B9772081F4F6
:10FC0000C15DDE4F0881CF52D1400F5FC15DDE4F35
:10FC10000883CF52D14090E0A0E0B0E00D941AF4F8
:10FC200027982F9880E090E020ED37E0F901319798
:10FC3000F1F7019684369105C9F700008091C00064
:10FC40008D7F8093C00081E180935700E895EE2777
:10FC5000FF270994FFCF90E00D941AF497FB092E2B
:10FC600007260AD077FD04D02ED006D000201AF443
:10FC7000709561957F4F0895F6F7909581959F4F08
:10FC80000895A1E21A2EAA1BBB1BFD010DC0AA1FDD
:10FC9000BB1FEE1FFF1FA217B307E407F50720F0F5
:10FCA000A21BB30BE40BF50B661F771F881F991F70
:10FCB0001A9469F760957095809590959B01AC01B9
:10FCC000BD01CF010895AA1BBB1B51E107C0AA1FAC
:10FCD000BB1FA617B70710F0A61BB70B881F991FED
:10FCE0005A95A9F780959095BC01CD010895F99991
:10FCF000FECF92BD81BDF89A992780B50895262F31
:10FD0000F999FECF1FBA92BD81BD20BD0FB6F89400
:0EFD1000FA9AF99A0FBE01960895F894FFCF63
:00000001FF
